{
  "_format": "hh-sol-artifact-1",
  "contractName": "Greeter",
  "sourceName": "contracts/Greeter.sol",
  "abi": [
    {
      "inputs": [
        {
          "internalType": "string",
          "name": "_greeting",
          "type": "string"
        }
      ],
      "stateMutability": "nonpayable",
      "type": "constructor"
    },
    {
      "inputs": [],
      "name": "deposit",
      "outputs": [],
      "stateMutability": "payable",
      "type": "function"
    },
    {
      "inputs": [],
      "name": "greet",
      "outputs": [
        {
          "internalType": "string",
          "name": "",
          "type": "string"
        }
      ],
      "stateMutability": "view",
      "type": "function"
    },
    {
      "inputs": [
        {
          "internalType": "string",
          "name": "_greeting",
          "type": "string"
        }
      ],
      "name": "setGreeting",
      "outputs": [],
      "stateMutability": "nonpayable",
      "type": "function"
    }
  ],
  "bytecode": "0x60806040523480156200001157600080fd5b50604051620010673803806200106783398181016040528101906200003791906200031e565b620000626040518060600160405280602281526020016200104560229139826200007b60201b60201c565b8060009081620000739190620005ba565b50506200075d565b6200011d828260405160240162000094929190620006f3565b6040516020818303038152906040527f4b5c4277000000000000000000000000000000000000000000000000000000007bffffffffffffffffffffffffffffffffffffffffffffffffffffffff19166020820180517bffffffffffffffffffffffffffffffffffffffffffffffffffffffff83818316178352505050506200012160201b60201c565b5050565b6200014781620001426200014a60201b620001eb176200016b60201b60201c565b60201c565b50565b60006a636f6e736f6c652e6c6f679050600080835160208501845afa505050565b6200017f60201b620002d017819050919050565b620001896200072e565b565b6000604051905090565b600080fd5b600080fd5b600080fd5b600080fd5b6000601f19601f8301169050919050565b7f4e487b7100000000000000000000000000000000000000000000000000000000600052604160045260246000fd5b620001f482620001a9565b810181811067ffffffffffffffff82111715620002165762000215620001ba565b5b80604052505050565b60006200022b6200018b565b9050620002398282620001e9565b919050565b600067ffffffffffffffff8211156200025c576200025b620001ba565b5b6200026782620001a9565b9050602081019050919050565b60005b838110156200029457808201518184015260208101905062000277565b60008484015250505050565b6000620002b7620002b1846200023e565b6200021f565b905082815260208101848484011115620002d657620002d5620001a4565b5b620002e384828562000274565b509392505050565b600082601f8301126200030357620003026200019f565b5b815162000315848260208601620002a0565b91505092915050565b60006020828403121562000337576200033662000195565b5b600082015167ffffffffffffffff8111156200035857620003576200019a565b5b6200036684828501620002eb565b91505092915050565b600081519050919050565b7f4e487b7100000000000000000000000000000000000000000000000000000000600052602260045260246000fd5b60006002820490506001821680620003c257607f821691505b602082108103620003d857620003d76200037a565b5b50919050565b60008190508160005260206000209050919050565b60006020601f8301049050919050565b600082821b905092915050565b600060088302620004427fffffffffffffffffffffffffffffffffffffffffffffffffffffffffffffffff8262000403565b6200044e868362000403565b95508019841693508086168417925050509392505050565b6000819050919050565b6000819050919050565b60006200049b620004956200048f8462000466565b62000470565b62000466565b9050919050565b6000819050919050565b620004b7836200047a565b620004cf620004c682620004a2565b84845462000410565b825550505050565b600090565b620004e6620004d7565b620004f3818484620004ac565b505050565b5b818110156200051b576200050f600082620004dc565b600181019050620004f9565b5050565b601f8211156200056a576200053481620003de565b6200053f84620003f3565b810160208510156200054f578190505b620005676200055e85620003f3565b830182620004f8565b50505b505050565b600082821c905092915050565b60006200058f600019846008026200056f565b1980831691505092915050565b6000620005aa83836200057c565b9150826002028217905092915050565b620005c5826200036f565b67ffffffffffffffff811115620005e157620005e0620001ba565b5b620005ed8254620003a9565b620005fa8282856200051f565b600060209050601f8311600181146200063257600084156200061d578287015190505b6200062985826200059c565b86555062000699565b601f1984166200064286620003de565b60005b828110156200066c5784890151825560018201915060208501945060208101905062000645565b868310156200068c578489015162000688601f8916826200057c565b8355505b6001600288020188555050505b505050505050565b600082825260208201905092915050565b6000620006bf826200036f565b620006cb8185620006a1565b9350620006dd81856020860162000274565b620006e881620001a9565b840191505092915050565b600060408201905081810360008301526200070f8185620006b2565b90508181036020830152620007258184620006b2565b90509392505050565b7f4e487b7100000000000000000000000000000000000000000000000000000000600052605160045260246000fd5b6108d8806200076d6000396000f3fe6080604052600436106100345760003560e01c8063a413686214610039578063cfae321714610062578063d0e30db01461008d575b600080fd5b34801561004557600080fd5b50610060600480360381019061005b9190610434565b610097565b005b34801561006e57600080fd5b50610077610157565b60405161008491906104fc565b60405180910390f35b6100956101e9565b005b61014460405180606001604052806021815260200161088260219139600080546100c09061054d565b80601f01602080910402602001604051908101604052809291908181526020018280546100ec9061054d565b80156101395780601f1061010e57610100808354040283529160200191610139565b820191906000526020600020905b81548152906001019060200180831161011c57829003601f168201915b50505050508361020c565b80600090816101539190610734565b5050565b6060600080546101669061054d565b80601f01602080910402602001604051908101604052809291908181526020018280546101929061054d565b80156101df5780601f106101b4576101008083540402835291602001916101df565b820191906000526020600020905b8154815290600101906020018083116101c257829003601f168201915b5050505050905090565b565b60006a636f6e736f6c652e6c6f679050600080835160208501845afa505050565b6102a683838360405160240161022493929190610806565b6040516020818303038152906040527f2ced7cef000000000000000000000000000000000000000000000000000000007bffffffffffffffffffffffffffffffffffffffffffffffffffffffff19166020820180517bffffffffffffffffffffffffffffffffffffffffffffffffffffffff83818316178352505050506102ab565b505050565b6102c2816102ba6101eb6102c5565b63ffffffff16565b50565b6102d0819050919050565b6102d8610852565b565b6000604051905090565b600080fd5b600080fd5b600080fd5b600080fd5b6000601f19601f8301169050919050565b7f4e487b7100000000000000000000000000000000000000000000000000000000600052604160045260246000fd5b610341826102f8565b810181811067ffffffffffffffff821117156103605761035f610309565b5b80604052505050565b60006103736102da565b905061037f8282610338565b919050565b600067ffffffffffffffff82111561039f5761039e610309565b5b6103a8826102f8565b9050602081019050919050565b82818337600083830152505050565b60006103d76103d284610384565b610369565b9050828152602081018484840111156103f3576103f26102f3565b5b6103fe8482856103b5565b509392505050565b600082601f83011261041b5761041a6102ee565b5b813561042b8482602086016103c4565b91505092915050565b60006020828403121561044a576104496102e4565b5b600082013567ffffffffffffffff811115610468576104676102e9565b5b61047484828501610406565b91505092915050565b600081519050919050565b600082825260208201905092915050565b60005b838110156104b757808201518184015260208101905061049c565b60008484015250505050565b60006104ce8261047d565b6104d88185610488565b93506104e8818560208601610499565b6104f1816102f8565b840191505092915050565b6000602082019050818103600083015261051681846104c3565b905092915050565b7f4e487b7100000000000000000000000000000000000000000000000000000000600052602260045260246000fd5b6000600282049050600182168061056557607f821691505b6020821081036105785761057761051e565b5b50919050565b60008190508160005260206000209050919050565b60006020601f8301049050919050565b600082821b905092915050565b6000600883026105e07fffffffffffffffffffffffffffffffffffffffffffffffffffffffffffffffff826105a3565b6105ea86836105a3565b95508019841693508086168417925050509392505050565b6000819050919050565b6000819050919050565b600061063161062c61062784610602565b61060c565b610602565b9050919050565b6000819050919050565b61064b83610616565b61065f61065782610638565b8484546105b0565b825550505050565b600090565b610674610667565b61067f818484610642565b505050565b5b818110156106a35761069860008261066c565b600181019050610685565b5050565b601f8211156106e8576106b98161057e565b6106c284610593565b810160208510156106d1578190505b6106e56106dd85610593565b830182610684565b50505b505050565b600082821c905092915050565b600061070b600019846008026106ed565b1980831691505092915050565b600061072483836106fa565b9150826002028217905092915050565b61073d8261047d565b67ffffffffffffffff81111561075657610755610309565b5b610760825461054d565b61076b8282856106a7565b600060209050601f83116001811461079e576000841561078c578287015190505b6107968582610718565b8655506107fe565b601f1984166107ac8661057e565b60005b828110156107d4578489015182556001820191506020850194506020810190506107af565b868310156107f157848901516107ed601f8916826106fa565b8355505b6001600288020188555050505b505050505050565b6000606082019050818103600083015261082081866104c3565b9050818103602083015261083481856104c3565b9050818103604083015261084881846104c3565b9050949350505050565b7f4e487b7100000000000000000000000000000000000000000000000000000000600052605160045260246000fdfe6368616e6765206772656574696e672066726f6d202725732720746f2027257327a264697066735822122057f0b8632beca04ba0b9e97068a0bed4a2c75ada466f1d22dc191dde5650a9a264736f6c634300081800336465706c6f79696e67206120677265657465722077697468206772656574696e673a",
  "linkReferences": {},
  "deployedLinkReferences": {}
}